:040000003DEF00F0E0
:10000800FACF36F0FBCF37F0E9CF38F0EACF39F046
:10001800E1CF3AF0E2CF3BF0D9CF3CF0DACF3DF078
:10002800F3CF3EF0F4CF3FF0F6CF40F0F7CF41F0FA
:10003800F8CF42F0F5CF43F043C0F5FF42C0F8FFD8
:1000480041C0F7FF40C0F6FF3FC0F4FF3EC0F3FFDA
:100058003DC0DAFF3CC0D9FF3BC0E2FF3AC0E1FF38
:1000680039C0EAFF38C0E9FF37C0FBFF36C0FAFFE6
:06007800110023EF0CF063
:1003000000CA03C00390036E0305010904A101A103
:100310000275089505150026FF00350046FF000907
:100320003009300930093009318102750495012501
:1003300007463B0165140900814265007501950A75
:100340002501450105091901290A81020600FF75E9
:1003500001950A2501450109018102C0A102750824
:10036000950446FF0026FF0009029102C0C0090261
:100370002200010100A03209040000010300000076
:100380000921110100012265000705810340000ACF
:100390001E0336004200200063006F006E007400F0
:1003A00072006F006C006C006500720000001201AA
:1003B000000200000008A30C24000001010200015B
:1003C0000A035300450047004100040309040000EC
:1003D00002011605D8A411D0020114511F0B000907
:1003E000D8A40BD02E8E030E02011519D8A402D06A
:1003F000010E01D0000E1E6E00D002011651D8A4CD
:100400001200020114511F0B020AD8A412000201AB
:1004100018510F0B0009D8B41200020118510F0B2C
:10042000556E020E55601200200E2318D8A412003B
:100430002E8E020118BF1BD0020118510F0B556EF2
:100440005550020D0D0EF324D96E000EF420DA6E15
:10045000DECF59F0DDCF5AF0020118510F0B556E67
:100460005550010D130EF324D96E000E1AD002015F
:1004700018510F0B556E5550020D090EF324D96E0D
:10048000000EF420DA6EDECF59F0DDCF5AF0020113
:1004900018510F0B556E5550010D110EF324D96EE6
:1004A000000EF420DA6EDF50586E00D0020118BF43
:1004B0000BD0020118510F0B556E5550020D0D0E49
:1004C000F324D96E000E0AD0020118510F0B556E9D
:1004D0005550020D090EF324D96E000EF420DA6E89
:1004E00059C0DEFF5AC0DDFF00D0030E020115190E
:1004F000D8A42FD059C0D9FF5AC0DAFFDFAE1CD024
:10050000020118BF0BD0020118510F0B556E555048
:10051000010D130EF324D96E000E0AD002011851FA
:100520000F0B556E5550010D110EF324D96E000EB0
:10053000F420DA6EDF8200D059C0D9FF5AC0DAFF4A
:10054000000EDB8459C0D9FF5AC0DAFF000EDB8EE3
:10055000120058B206D059C0D9FF5AC0DAFFDFAE38
:1005600037D0020118BF0BD0020118510F0B556E86
:100570005550010D130EF324D96E000E0AD002015E
:1005800018510F0B556E5550010D110EF324D96EF5
:10059000000EF420DA6EDF9200D059C0D9FF5AC0A5
:1005A000DAFF7B0EDF1659C0D9FF5AC0DAFF000E02
:1005B000DB8C000E4E6E050E4D6E59C04FF05AC0CA
:1005C00050F0000E526E020E516EC9EC0AF00DD0C2
:1005D00059C0D9FF5AC0DAFF7B0EDF1659C0D9FFC8
:1005E0005AC0DAFF000EDB8C00D0020118510F0B4D
:1005F000556E5550010D530EF324566E0F0EF42018
:10060000576E56C0D9FF57C0DAFFFE0EDF16120034
:10061000120008D0000E646E000E606E000E236E95
:10062000A19412002350D8A412D0000E646E000EC4
:10063000606E150E616E9F0E0F015B6F7B0E606E1C
:1006400001D0648664A6FDD7010E236E00D023047A
:10065000D8B464BA09D0000E626E000E606E60807D
:100660006088020E236E00D062B460A404D062944D
:10067000B6EC0BF000D064A202D0A194120062B0DC
:1006800060A006D0BAEC03F0040E236E629000D096
:1006900062B860A803D0E7EC0BF000D062AC1FD0CA
:1006A00060AC0FD0000E4E6E730E4D6E000E4F6E8E
:1006B000000E506E000E526E010E516EC9EC0AF023
:1006C00000D0629C12EC0CF02650D8B402D0260662
:1006D00000D02650D8A403D039EC08F000D062BA7C
:1006E00060AA03D032EC0BF000D062B260A211D04D
:1006F0007F0E4E6E4D68000E4F6E000E506E000E57
:10070000526E010E516EC9EC0AF0000E0F015F6FC0
:1007100000D0040E236002D0A194120060A628D05D
:10072000000E5C6E030E5C6401D022D062A620D065
:1007300063CF33F03330E832E8320F0B296E629624
:100740002950D8A403D043EC0AF010D0000E4E6E0E
:10075000720E4D6E330E4F6E000E506E000E526EC6
:10076000000E516EC9EC0AF001D002D05C2ADAD733
:10077000A1941200A094000E0F015F6F000E626E34
:10078000000E0F01536F540E446E0F0E456E000E97
:10079000476E000E466E000E496E010E486ED0EC9C
:1007A0000BF0150E616E9F0E0F015B6F7B0E606E7E
:1007B000000E4C6E0ED010D04C50040D000EF324E1
:1007C000D96E020EF420DA6EDE6ADE6ADE6ADD6A57
:1007D0004C2A040E4C64F0D7648C000E0F015C6F41
:1007E0006498649C00D06296000E2E6E000E046E1B
:1007F000000E066E000E056E62B6F5D7010E246E71
:10080000010E256E000E206E000E216E000E1F6E72
:10081000000E4C6E010E4C6401D02ED04C50020DD7
:10082000090EF324D96E000EF420DA6E000EDE6E8F
:10083000000EDD6E4C50020D0D0EF324D96E000E2D
:10084000F420DA6E000EDE6E000EDD6E4C50010DEF
:10085000110EF324D96E000EF420DA6E000EDF6E56
:100860004C50010D130EF324D96E000EF420DA6EF5
:10087000000EDF6E4C2ACED7080E096E020E0A6EED
:10088000160E0F01536F020E0201036F140E026F5A
:10089000080E0201016F040E0201006F0201008FB9
:1008A000000E316E000E0001606F000E616F000ED1
:1008B000626F000E636F000E276E000E236E120033
:1008C000800E02011419D8A41200C00E2E6E7CD026
:1008D000AE0E2B6E030E2C6E000E306E120E2F6EAF
:1008E000120002011651D8A43ED002011651020D89
:1008F000070EF324F66E030EF420F76E0900F5CF11
:100900002BF00A00F5CF2CF0020E2B24446E000EC3
:100910002C20456E44C0F6FF45C0F7FFF86A020E72
:10092000F76403D00800F55005D0F6CFE1FFF7CF0C
:10093000E2FFE7502F6E030E2B24446E000E2C2096
:10094000456E44C0F6FF45C0F7FFF86A020EF76433
:1009500003D00800F55005D0F6CFE1FFF7CFE2FF56
:10096000E750306E1200000E2E6E1200030E0201D0
:10097000166124D002011651020D010EF324F66E09
:10098000030EF420F76E0900F5CF2BF00A00F5CF27
:100990002CF02BC0F6FF2CC0F7FFF86A020EF764AC
:1009A00003D00800F55005D0F6CFE1FFF7CFE2FF06
:1009B000E750446E44502F6E306A1200000E2E6EC7
:1009C0001200000E2E6E120002011751010AD8B457
:1009D0007FD7030AD8B485D7010AD8B4C7D7F1D7CF
:1009E0001200120020EE01F01750D9261850DA221A
:1009F000DF50456E4550055C000E0658D8B003D058
:100A000005C045F000D04550055E000E065A000EA8
:100A1000446E12D04450010D1C0EF324D96E020E08
:100A2000F420DA6E01C0E1FF02C0E2FFDFCFE7FF92
:100A3000014A022A442A00D04550445CD8A0EAD793
:100A400005500610D8B432D020EE01F01950D92646
:100A50001A50DA22080EDF6E20EE02F01950D92665
:100A60001A50DA221C0EDE6E020EDD6E17C0D9FFA0
:100A700018C0DAFFDFBC0DD019C0D9FF1AC0DAFFE9
:100A8000480EDF6E19C0D9FF1AC0DAFF000EDB8EE8
:100A9000120019C0D9FF1AC0DAFF080EDF6E19C0A4
:100AA000D9FF1AC0DAFF000EDB8E120020EE01F033
:100AB0001950D9261A50DA22080EDF6E20EE02F005
:100AC0001950D9261A50DA22140EDE6E020EDD6E8F
:100AD00019C0D9FF1AC0DAFF040EDF6E19C0D9FFA2
:100AE0001AC0DAFF000EDB8E00D0049E2250D8A47C
:100AF000120039EC08F01200120064982EBE3AD0B1
:100B000004AE0DD0020E286E2150D8A403D0ABEC59
:100B100009F000D0000E256E000E246E120020EEAB
:100B200001F01950D9261A50DA22080EDF6E20EE95
:100B300002F01950D9261A50DA22140EDE6E020E77
:100B4000DD6E19C0D9FF1AC0DAFF0C0EDF6E19C0B6
:100B5000D9FF1AC0DAFF000EDB8E09C0D9FF0AC028
:100B6000DAFF040EDF6E09C0D9FF0AC0DAFF000EFB
:100B7000DB8E1200020114AF12D0010E286E20503D
:100B8000D8A403D0ABEC09F000D0000E256E000E07
:100B9000246E2250D8A4120039EC08F01200020E84
:100BA000286E20EE01F01950D9261A50DA22080ECC
:100BB000DF6E20EE02F01950D9261A50DA22140EF8
:100BC000DE6E020EDD6E19C0D9FF1AC0DAFF040E08
:100BD000DF6E19C0D9FF1AC0DAFF000EDB8E000EDF
:100BE000256E000E246E2250D8A4120039EC08F0B5
:100BF000120012001F0E2364120064B2120001D012
:100C0000120015501610D8B406D015C0D9FF16C062
:100C1000DAFFDFBE1200010E0201406F7F0E0201FB
:100C2000416F7F0E0201426F7F0E0201436F7F0E04
:100C30000201446F0F0E0201456F000E0201466F64
:100C4000000E0201476F82B004D0000E0201446F13
:100C500000D082B202D00201446982B404D0000EF6
:100C60000201436F00D082B602D00201436982B80C
:100C700003D00201468B00D082BA03D00201458D19
:100C800000D082BC03D00201458B00D082BE03D0CD
:100C90000201468300D081BE03D00201458F00D0FF
:100CA00081BC03D00201458900D081BA03D0020182
:100CB000468100D081B803D00201468900D0000EE1
:100CC000456E280E446E3DEC0CF0010E446E400E55
:100CD000456E020E466E080E476E010E55EC09F089
:100CE00044C015F045C016F0120012000201145164
:100CF0001F0BE806D8A4120001D0120002011851FF
:100D0000D8A4120001D01200060E02011519D8B4A1
:100D10001AD023D018D03104D8A41FD0800E2B6E47
:100D2000030E2C6E000E306E090E0AD0C00E2E6E11
:100D300014D0090E2B6E030E2C6E000E306E650E55
:100D40002F6EF4D70AD002011751210AD8B4E3D785
:100D5000030AD8B4EED7010A00D002011439E832F0
:100D6000030BE806D8A4120023D0120021D01200F1
:100D7000350E2B6E000E2C6E000E306E010E2F6E97
:100D8000C10E2E6E1200800E2E6E17C235F01200AC
:100D9000340E2B6E000E2C6E000E306E010E2F6E78
:100DA000810E2E6E1200800E2E6E16C234F01200CE
:100DB00002011551010AD8B41200030AD8B4D8D7D9
:100DC000010AD8B4E5D70A0AD8B41200030AD8B485
:100DD000DAD7010AD8A41200E6D7120002011439AA
:100DE000E832030B0009D8A4120046D0120044D008
:100DF0002E8E080E236E120060EC04F012005FECE1
:100E000007F01200310E2B6E000E2C6E2E80010E9C
:100E10002F6E2E8E1200FAEC08F0120000D0E8ECD3
:100E200001F0120002011851010D320EF3242B6E55
:100E3000000EF4202C6E2E80010E2F6E2E8E1200CE
:100E40002E8E02011851010D320EF324D96E000EC0
:100E5000F420DA6E16C2DFFF1200000E4E6E020E94
:100E60004D6E000E4F6E000E506E000E526E000E54
:100E7000516EC9EC0AF0120002011551000AD8B4F3
:100E8000CAD7010AD8B4CBD7020AD8B4C8D7060A41
:100E9000D8B4AED7030AD8B4AFD7010AD8B4DDD7D7
:100EA0000F0AD8B4AFD7010AD8B4A9D7030AD8B467
:100EB000B9D7010AD8B4C4D7070A120012002E8E7F
:100EC000540E446E0F0E456E000E476E000E466EB9
:100ED000000E496E010E486ED0EC0BF0000E446E11
:100EE000020E456E000E476E000E466E000E496EF5
:100EF000140E486ED0EC0BF0648C000E556E010E93
:100F0000556401D016D05550010D110EF324D96E41
:100F1000000EF420DA6E000EDF6E5550010D130E38
:100F2000F324D96E000EF420DA6E000EDF6E552A1F
:100F3000E6D7320E446E000E456E000E476E000E70
:100F4000466E000E496E010E486ED0EC0BF0649CAC
:100F5000080E096E020E0A6E000E176E020E186E53
:100F600017C019F018C01AF016C231F03150D8A4C9
:100F700003D0100E236E1200000E4E6E010E4D6E49
:100F8000310E4F6E000E506E000E526E010E516EFD
:100F9000C9EC0AF0200E236E12001200080E446EF7
:100FA000305011E1080E2F5CD8B00DD02FC044F0A6
:100FB0002A50D8A402D0010E04D02A04D8A403D009
:100FC000020E2A6E00D044502F5E000E305A20EEE2
:100FD00001F00950D9260A50DA2244C0DFFF1C0E66
:100FE0001B6E020E1C6E2EA01DD03DD01BD02BC040
:100FF000F6FF2CC0F7FFF86A1BC0E1FF1CC0E2FF40
:10100000020EF76403D00800F55005D0F6CFD9FFE3
:10101000F7CFDAFFDF50E76E2B4A2C2A1B4A1C2A37
:10102000440600D04450D8B41200E1D712001BD0BF
:101030002BC0F6FF2CC0F7FFF86A1BC0E1FF1CC0F5
:10104000E2FF020EF76403D00800F55005D0F6CF9A
:10105000D9FFF7CFDAFFDF50E76E2B4A2C2A1B4A65
:101060001C2A440600D04450D8B41200E1D7120024
:1010700012002450D8A41200010E246E2550D8A4CA
:101080001200010E256E020E2818D8A415D020EEED
:1010900001F00950D9260A50DA22000EDF6E09C08D
:1010A000D9FF0AC0DAFF480EDF6E09C0D9FF0AC0B7
:1010B000DAFF000EDB8E12002804D8A41200000E06
:1010C0001D6E20EE01F01750D9261850DA22080EB6
:1010D000DF6E20EE02F01750D9261850DA22140ED7
:1010E000DE6E020EDD6E17C0D9FF18C0DAFF040EE7
:1010F000DF6E17C0D9FF18C0DAFF000EDB8E010EBD
:101100001D6E20EE01F01950D9261A50DA22080E71
:10111000DF6E20EE02F01950D9261A50DA22140E92
:10112000DE6E020EDD6E19C0D9FF1AC0DAFF800E26
:10113000DF6E1200120009C0D9FF0AC0DAFF000EEC
:10114000DFBC010E456E080E2318D8A40ED0020194
:1011500016517F0B0F015C6F0F015C51D8B402D0A8
:10116000100E01D0040E236E00D02804D8A43AD06B
:1011700020EE02F00950D9260A50DA221C0EDE6E4B
:10118000020EDD6ECEEC07F0020E2A18D8A40DD0A8
:1011900009C0D9FF0AC0DAFF040EDF6E09C0D9FF0B
:1011A0000AC0DAFF000EDB8E12004550D8A40DD025
:1011B00009C0D9FF0AC0DAFF480EDF6E09C0D9FFA7
:1011C0000AC0DAFF000EDB8E120009C0D9FF0AC088
:1011D000DAFF080EDF6E09C0D9FF0AC0DAFF000E81
:1011E000DB8E120004AE02D0049E00D0000E286EEA
:1011F00012001200000E02011C6F000E02011D6F92
:101200003DD02E8E03D002011C8100D01E04D8A434
:1012100041D002011C833ED02E8E3CD02E8E020186
:1012200018BF0BD0020118510F0B446E4450020D31
:101230000D0EF324D96E000E0AD0020118510F0BC7
:10124000446E4450020D090EF324D96E000EF420B2
:10125000DA6EDECF45F0DDCF46F000D045C0D9FFD5
:1012600046C0DAFFDFAE16D045C0D9FF46C0DAFF70
:10127000DFA410D0010E02011C6F0CD0020114512A
:101280001F0B000AD8B4BDD7010AD8B4C5D7030ACA
:10129000D8B4C4D72EAE12001C0E2B6E020E2C6ECC
:1012A0002E80020E2F6E12001200486E4450D8B4E9
:1012B00007D04850020D090EF324D96E000E06D057
:1012C0004850020D0D0EF324D96E000EF420DA6E94
:1012D000DECF49F0DDCF4AF000D049504A10D8A403
:1012E00005D0000E446E000E456E12004850D8B472
:1012F00007D049C0D9FF4AC0DAFF400EDF1A00D03C
:1013000020EE02F04950D9264A50DA2245C0DEFFCD
:1013100046C0DDFF20EE01F04950D9264A50DA22BE
:1013200047C0DFFF49C0D9FF4AC0DAFF400EDF16D1
:1013300049C0D9FF4AC0DAFF000EDB8649C0D9FF99
:101340004AC0DAFF000EDB8E00D049C044F04AC02C
:1013500045F012001200000E206E000E216E020EEB
:101360002818D8A41FD020EE01F01950D9261A5001
:10137000DA22080EDF6E20EE02F01950D9261A503C
:10138000DA221C0EDE6E020EDD6E19C0D9FF1AC005
:10139000DAFF480EDF6E19C0D9FF1AC0DAFF000E5F
:1013A000DB8E12002F5002011A5D305002011B59D2
:1013B000D8B005D01AC22FF01BC230F000D0CEEC4E
:1013C00007F020EE02F00950D9260A50DA221C0E4E
:1013D000DE6E020EDD6E09C0D9FF0AC0DAFF480ECC
:1013E000DF6E09C0D9FF0AC0DAFF000EDB8E1200E3
:1013F0001200486E000E466E020E476E010E456EDC
:101400004850D8A406D04450D8A403D0000E456E4E
:1014100000D04850020D4450F326000EF4224550EF
:10142000F326000EF422D890F336F436D890F33633
:10143000F436F3504626F450472246C0D9FF47C041
:10144000DAFFDF9E4450D8A407D04850020D0D0E9D
:10145000F324D96E000E06D04850020D090EF32475
:10146000D96E000EF420DA6E46C0DEFF47C0DDFF05
:1014700000D04850D8B4120046C0D9FF47C0DAFFA8
:10148000DF8C120012002D0E266E33C05BF0FD0EB5
:101490005B16D8A438D033C05BF0D8905B323F0ED7
:1014A0005B165B50040D000EF324176E020EF42041
:1014B000186E17C019F018C01AF0040E191A17C0C8
:1014C000D9FF18C0DAFFDF30E8320F0B0D0AD8A4BD
:1014D00017D0140E446E020E456E20EE02F0175027
:1014E000D9261850DA22DECF46F0DDCF47F0000EC5
:1014F000496E080E486E56EC0BF08CEC0AF01200A8
:1015000003EC0BF012003350FD0B040AD8A41200B8
:101510009BEC08F012001200000E2A6E000E226EE4
:10152000000E206E000E216E000E1D6E000E286E45
:1015300009C0D9FF0AC0DAFF7F0EDF1609C0D9FF44
:101540000AC0DAFF7F0EDF1619C0D9FF1AC0DAFF12
:101550007F0EDF16000E2E6E000E306E000E2F6E08
:10156000000E046E000E066E000E056EEEEC06F028
:10157000000E4E6E030E4D6E000E4F6E000E506E3E
:10158000000E526E000E516EC9EC0AF07DEC05F0B3
:1015900012000FD01200010E97EC0BF01200020E99
:1015A00097EC0BF0120033EC0CF0120076EC06F026
:1015B00012004DC053F04EC054F05450000AD8B43D
:1015C00004D07F0AD8A412001AD05350010AD8B40C
:1015D000EAD7030AD8B41200010AD8B4E7D7060A3A
:1015E000D8B41200770AD8B41200010AD8B4120095
:1015F000070AD8B4D4D7010AD8A41200CCD75350C4
:10160000FF0A12001200020E2818D8A403D0F2EC30
:1016100004F01200000E286E1D50D8A41FD020EE3A
:1016200001F01950D9261A50DA22080EDF6E20EE8A
:1016300002F01950D9261A50DA22140EDE6E020E6C
:10164000DD6E19C0D9FF1AC0DAFF0C0EDF6E19C0AB
:10165000D9FF1AC0DAFF000EDB8E1200000E1D6EDD
:10166000120012000F0153A11FD017C0D9FF18C0DC
:10167000DAFF800EDE18D8A415D009C0D9FF0AC041
:10168000DAFF840EDE18D8A40DD017C0D9FF18C019
:10169000DAFF0C0EDF6E17C0D9FF18C0DAFF000E9C
:1016A000DB8E00D00F015391629A120046C04CF0BD
:1016B00047C04DF044C04AF045C04BF00FD04CC07D
:1016C000D9FF4DC0DAFF4AC0E1FF4BC0E2FFDFCFD8
:1016D000E7FF4C4A4D2A4A4A4B2A00D04806D8A078
:1016E00049064828ECE14928D8A4E9D712004C6EF5
:1016F00049A406D0000E446E4C50F9EC09F000D01D
:1017000049A206D0010E446E4C50F9EC09F000D00D
:101710004C50010D530EF3244A6E0F0EF4204B6E05
:101720004AC0D9FF4BC0DAFF49C0DFFF1200446E48
:1017300013D0000E816E000E826E000E8A6E000EB7
:101740008B6E000E7E6E000E7F6EF00E936E9468B0
:10175000F19EF00E786E12004450000AD8B4E9D71A
:10176000010AD8B41200030A12001200000E1F6E04
:10177000000E4E6E740E4D6E000E4F6E000E506ECB
:10178000000E526E000E516EC9EC0AF06492609425
:1017900002D0629400D062B4FCD7000E276E120013
:1017A00044C04AF045C04BF009D04AC0D9FF4BC0F5
:1017B000DAFF46C0DFFF4A4A4B2A00D04806D8A0CD
:1017C00049064828F2E14928D8A4EFD712006084DE
:1017D00062986482010E1F6E000E276E000E4E6E20
:1017E000750E4D6E000E4F6E000E506E000E526E56
:1017F000000E516EC9EC0AF01200000E97EC0BF0CF
:10180000BAEC03F000D009EC03F0200E236001D005
:10181000FAD764B2F8D701D0F6D7FAEC05F0F3D7CF
:101820003DEF00F0010E00016027000E61236223EE
:1018300063231F50D8A41200272A2750D8A41200CF
:101840002768120012000001636B626B616B606BB2
:1018500000EE01F0350EEE6AE806FDE1000EF86ECE
:101860000001FDEF0BF0000E156E000E166E1A0E45
:10187000496E010E77EC0BF0120004D04406D8A09C
:0E188000450600D044504510D8A4F8D71200F9
:020000040020DA
:08000000FFFFFFFFFFFFFFFF00
:020000040030CA
:0E0000000032011EFF0081FF03C003E0034039
:00000001FF
